{"abi":[{"type":"function","name":"send","inputs":[{"name":"recipient","type":"address[]","internalType":"address payable[]"},{"name":"amounts","type":"uint256[]","internalType":"uint256[]"}],"outputs":[],"stateMutability":"payable"}],"bytecode":{"object":"0x608060405234801561001057600080fd5b506102b3806100206000396000f3fe60806040526004361061001e5760003560e01c8063a645ff5f14610023575b600080fd5b6100366100313660046101a4565b610038565b005b8281146100a25760405162461bcd60e51b815260206004820152602e60248201527f526563697069656e747320616e6420416d6f756e74732073686f756c6420686160448201526d0ecca40e6dac2ca40d8cadccee8d60931b606482015260840160405180910390fd5b60005b83811015610151578484828181106100bf576100bf610210565b90506020020160208101906100d49190610226565b6001600160a01b03168383838181106100ef576100ef610210565b9050602002013560405160006040518083038185875af1925050503d8060008114610136576040519150601f19603f3d011682016040523d82523d6000602084013e61013b565b606091505b505050808061014990610256565b9150506100a5565b5050505050565b60008083601f84011261016a57600080fd5b50813567ffffffffffffffff81111561018257600080fd5b6020830191508360208260051b850101111561019d57600080fd5b9250929050565b600080600080604085870312156101ba57600080fd5b843567ffffffffffffffff808211156101d257600080fd5b6101de88838901610158565b909650945060208701359150808211156101f757600080fd5b5061020487828801610158565b95989497509550505050565b634e487b7160e01b600052603260045260246000fd5b60006020828403121561023857600080fd5b81356001600160a01b038116811461024f57600080fd5b9392505050565b60006001820161027657634e487b7160e01b600052601160045260246000fd5b506001019056fea2646970667358221220ec02643754bc6c539d5985511761fad132e6f9f87de09213c57b7c1f460e28b564736f6c63430008140033","linkReferences":{}},"methodIdentifiers":{"send(address[],uint256[])":"a645ff5f"},"id":25}